:100000000C9446000C946F000C946F000C946F00DD
:100010000C946F000C946F000C94DE020C946F0033
:100020000C946F000C946F000C946F000C94B0084B
:100030000C946F000C946F000C940F080C946F00DC
:100040000C946F000C946F000C946F000C946F0074
:100050000C946F000C946F000C946F000C94D208F9
:100060000C946F000C946F005F03430317030E039F
:100070001403BD03B203320A120912092F0A3B0A04
:100080002B0A420A3E0A460AFE09D00911241FBE65
:10009000CFEFD8E0DEBFCDBF14BE0FB6F894A89561
:1000A00080916000886180936000109260000FBEB4
:1000B00011E0A0E0B1E0EEE8FEE102C005900D9293
:1000C000A631B107D9F721E0A6E1B1E001C01D9248
:1000D000A039B207E1F70E94150C0C94450F0C945F
:1000E000000086E291E0089581E090E090931F0186
:1000F00080931E010895CF93DF93EC01CB0121E0A3
:1001000030E030931D0120931C010E943D0590E0DA
:1001100090931B0180931A01888190E090931901BC
:1001200080931801DF91CF9108950F931F93CF9380
:10013000DF9381E00E948C0888EE93E00E944C04DB
:1001400080E00E948C08C6E2D1E019861882CE01B8
:100150000E94D90A9B878A870E94B6040E941D05C7
:10016000C0910401D0910501009106011091070191
:100170000E94050590E0BE01601B710B6F5F7F4F11
:100180000E94320C800F911F909309018093080107
:100190000E9405052AE0829FC0011124DF91CF91C2
:1001A0001F910F910C944C040F931F93CF93DF93E7
:1001B00080911E0190911F01892B21F010921F0147
:1001C00010921E0180911C0190911D01892B41F517
:1001D00080912001909121018093260186E291E097
:1001E0000E94D90A909331018093300180912001BF
:1001F00090912101209108013091090128173907B8
:100200003CF101969093210180932001809102019D
:1002100090910301DF91CF911F910F910C944C04A9
:1002200010921D0110921C0120912001309121019A
:1002300090911801921B9E3F94F19F3FA4F180E0A2
:1002400090E0820F931F9093210180932001C4CFEF
:1002500085E00E948C088AEF90E00E944C0480E0C8
:100260000E948C08C0910401D09105010091060103
:10027000109107010E94050590E0BE01601B710B03
:100280006F5F7F4F0E94320C800F911F9093090186
:10029000809308011092210110922001B7CF909114
:1002A00000019195CACF892F990F990BCACF0F934F
:1002B0001F93CF93DF938C01EB010E94050590E023
:1002C000BE01601B710B6F5F7F4F0E94320C800F6D
:1002D000911FDF91CF911F910F9108950F931F935D
:1002E000CF93DF9385E00E948C088AEF90E00E9414
:1002F0004C0480E00E948C08C0910401D09105015B
:1003000000910601109107010E94050590E0BE01D1
:10031000601B710B6F5F7F4F0E94320C800F911F2B
:100320009093090180930801DF91CF911F910F9164
:100330000895209120013091210190911801921B84
:100340009E3F1CF49091000191959F3F4CF080E0FE
:1003500090E0820F931F90932101809320010895D4
:10036000892F990F990B820F931F909321018093EE
:100370002001089585E10E948C0884E690E00E94A7
:100380004C0485E10C948C0880911E0190911F0112
:10039000892B21F010921F0110921E010895809167
:1003A0001C0190911D01892BD1F010921D0110921A
:1003B0001C01209120013091210190911801921B84
:1003C0009E3F1CF49091000191959F3F4CF080E07E
:1003D00090E0820F931F9093210180932001089554
:1003E000892F990F990BF5CF089580E090E008953B
:1003F0000895DF92EF92FF920F931F93CF93DF93B5
:10040000F89414B817B81AB815B818B81BB8529A97
:100410005A9A14BC85E085BD8FEF87BD82E080933A
:100420006E0010928000109281002FE83BE0309324
:1004300089002093880080936F005398239891EA55
:100440009093B0008093B1001092B4001092B3006A
:100450008BE080BF83E080937F0086E080937C0008
:1004600083E880937A0080917A00806480937A0098
:1004700080917A0086FDFCCF10927C0083EA809305
:100480007A0081E080937B0081E090E00E94DB0EA7
:100490008F3F11F08093660010925901C1E0C09324
:1004A0003201C09376011092500110928A0180E9C6
:1004B00090E00E94DB0E80934F0180914F01887382
:1004C00011F0C0934F0110927A01109279018FEFD1
:1004D00090E09093780180937701109255011092EB
:1004E0005601109257011092580181E08093250126
:1004F00082E49FE0909389018093880180EB90E0F3
:100500000E94DB0EC82F81EB90E00E94DB0E2C2FA7
:1005100030E0382B30938C0120938B0185E090E004
:100520000E94DB0E80938F0189E090E00E94DB0E39
:1005300080937B018CE090E00E94DB0E80938D0124
:1005400084E190E00E94DB0E80938E015AE5E52E57
:1005500051E0F52E03E311E0C0E2D0E0CE010E94AD
:10056000DB0ED82ECE0101960E94DB0E2D2D30E041
:10057000322F2227282BF701219331937F01CE01BF
:10058000C0960E94DB0ED82ECE01C1960E94DB0ED3
:100590002D2D30E0322F2227282BF8012193319383
:1005A0008F012296CC33D105C9F67894DF91CF9193
:1005B0001F910F91FF90EF90DF9008951F920F927F
:1005C0000FB60F9211248F930FB6F894A8958091CF
:1005D0006000886180936000109260000FBE8F9170
:1005E0000F900FBE0F901F9018953C01EB0110E08B
:1005F00099249A9484E0C82E96E0A92E23E8B22E7E
:1006000038E1D32E49E2E42EE0912501F0E0E73015
:10061000F105D0F7EC5CFF4F0C94460C112309F464
:1006200005C1C092250111E0FE010995EDCF809131
:100630005901811105C1F894A0927C00B0927A0012
:1006400080917A00806480937A0080917A0086FDA0
:10065000FCCF809178009091790078948B3AE2E019
:100660009E070CF0E6C08938F2E09F070CF0EFC05F
:10067000873692400CF4E4C0559A549A3B9A3A9AC1
:100680003D983C98C1CF559854983B9A3A9A3D98DA
:100690003C98EFECF7E03197F1F700C00000559877
:1006A00054983B983A983D983C98FFEF21EE84E0AF
:1006B000F15020408040E1F700C00000A5CFF89441
:1006C00080B7877F80BF80917A008F7780937A0090
:1006D00014B817B81AB815B818B81BB80FB6F894EC
:1006E000A895D09260000FBEE092600080916000FB
:1006F00080648093600083B7817F846083BFF894B7
:1007000083B7816083BF7894889583B78E7F83BFDA
:10071000789410925901529A5A9A80917A0080687E
:1007200080937A0087E592E00197F1F700C000001E
:1007300080B7886180BF559A549A3B9A3A9A3D9AFD
:100740003C9AEFE1FEE43197F1F700C000008091A0
:10075000590181115BC0559854983B983A983D983F
:100760003C9852CF80912301811125C01092B30093
:100770001092B4001092240147CF4899ECCF559ABB
:1007800054983B983A983D983C988FEC97E00197A5
:10079000F1F700C00000559854983B983A983D985E
:1007A0003C989FEFE1EEF4E09150E040F040E1F73B
:1007B00000C0000029CF9091230180912401981757
:1007C00009F422CF80912301809324018091230199
:1007D000813009F450C0809123011092B3009092AF
:1007E000B4008230D9F19092B3009092B4008FE2BD
:1007F00095E70197F1F700C0000080918E0190917C
:100800008D019093B3008093B400FECE559A549A14
:100810003B983A983D983C98FFEF20E782E0F150F2
:1008200020408040E1F700C0000095CFF30109951A
:10083000F8CE559854983B9A3A9A3D983C98E4CE15
:10084000559A549A3B983A983D983C98DDCE5598E5
:1008500054983B983A983D9A3C9AD6CEEFE2F5E709
:100860003197F1F700C0000080917B011092B30036
:100870008093B400C9CE9092B3001092B4008FE27E
:1008800095E70197F1F700C0000080918F018093F8
:10089000B3001092B400B8CE07C0EFECF7E0319788
:1008A000F1F700C0000001970097B9F70895809311
:1008B000B3006093B40008958FEF8093B3008093EA
:1008C000B4008FE090E0EFECF7E03197F1F700C073
:1008D00000000197C1F708958091590181111EC050
:1008E000F89487E080937C0083E880937A0080917D
:1008F0007A00806480937A0080917A0086FDFCCF34
:10090000809178009091790010927C0023EA2093E6
:100910007A0021E020937B00789408958FEF9FEF79
:1009200008958091590181111EC0F89488EC80933C
:100930007C0087E880937A0080917A0080648093BD
:100940007A0080917A0086FDFCCF809178009091AA
:10095000790010927C0023EA20937A0021E0209312
:100960007B00789408958FEF9FEF08950F931F9366
:10097000CF93DF93E0E0F0E080E003EA11E0D6E01F
:10098000C3E8A1E0B0E060E870E0F894D0937C00A8
:10099000C0937A0090917A00906490937A0090913D
:1009A0007A0096FDFCCF209178003091790021707B
:1009B00090917A00906490937A0090917A0096FDDD
:1009C000FCCF409178005091790010927C00009308
:1009D0007A0010937B0078944170241303C0615017
:1009E000710999F6222339F09D010E2E01C0220FC4
:1009F0000A94EAF7822B3196E830F10509F0C3CF6B
:100A0000DF91CF911F910F91089580910A01982F46
:100A1000990F990F990F89279091220121E0290FB1
:100A200020932201282F22952695277082279695BC
:100A30009695892780930A01089580930A01089565
:100A400080915901811116C0F89486E080937C0052
:100A500083E880937A0080917A00806480937A00A2
:100A600080917A0086FDFCCF80917800909179008A
:100A7000789408958FEF9FEF08952F923F924F92B1
:100A80005F926F927F928F929F92AF92BF92CF921E
:100A9000DF92EF92FF920F931F93CF93DF9300D0DB
:100AA00000D000D0CDB7DEB71C01DC0112960D904E
:100AB000BC91A02DBE83AD83A438E3E0BE070CF04B
:100AC000CBC080913301909134018A179B0708F4C1
:100AD0008CC100913501109136010A171B0708F4EB
:100AE00022C200913701109138010A171B0708F440
:100AF00028C20091390110913A010A171B0708F426
:100B000024C200913B0110913C010A171B0708F415
:100B100025C200913D0110913E010A171B0708F400
:100B2000E6C100913F01109140010A171B0708F42C
:100B30001EC200914101109142010A171B0708F4DF
:100B40001FC200914301109144010A171B0708F4CA
:100B500025C200914501109146010A171B0708F4B0
:100B600026C200914701109148010A171B0708F49B
:100B700022C20091490110914A010A171B0708F48B
:100B800023C200914B0110914C010A171B0708F476
:100B900024C200914D0110914E010A171B0708F461
:100BA00025C280E090E0A0EDB0E489839A83AB8316
:100BB000BC832CE0E22EF12CF701EE0FFF1FED5C61
:100BC000FE4F80819181B801681B790B80E090E035
:100BD0000E94840D9B01AC010E94700C6B017C0192
:100BE000AD81BE81BD01BB0F880B990B0E94860DA4
:100BF0004B015C01B80180E090E00E94840D2B0164
:100C00003C0129813A814B815C81C701B6010E9478
:100C1000120E9B01AC01C301B2010E946F0C9B013B
:100C2000AC01C501B4010E946F0C20E030E040E24D
:100C300051E40E94120E0E944E0D8B01C701B601B5
:100C40000E944E0DAB01BC01C801BA010E94320CDA
:100C50006983ED81FE81CBC0DC01CD90DC90809179
:100C60005A0190915B018C159D0508F4DFC0BFEF20
:100C7000B98300915C0110915D010C151D0508F40C
:100C800056C100915E0110915F010C151D0508F41D
:100C900053C100916001109161010C151D0508F40C
:100CA00058C100916201109163010C151D0508F4F3
:100CB00059C100916401109165010C151D0508F4DE
:100CC000B7C000916601109167010C151D0508F46D
:100CD00052C100916801109169010C151D0508F4BD
:100CE00053C100916A0110916B010C151D0508F4A8
:100CF00050C100916C0110916D010C151D0508F497
:100D000051C100916E0110916F010C151D0508F481
:100D100056C100917001109171010C151D0508F468
:100D200057C100917201109173010C151D0508F453
:100D300058C100917401109175010C151D0508F43E
:100D400059C11AE5B981BF3F09F459C1ED81FE814E
:100D5000BF01FF0F880B990B0E94860D4B015C01B0
:100D6000F9816F2F70E080E090E00E94840D6B01AC
:100D70007C01A501940160E070E081E694E40E94AA
:100D80006F0C9B01AC01C701B6010E94120E6B01F2
:100D90007C01612F70E080E090E00E94840D2B01C7
:100DA0003C0120E030E04FE254E4C501B4010E9470
:100DB0006F0C9B01AC01C301B2010E94120E9B019A
:100DC000AC01C701B6010E94700C20E030E048E49D
:100DD00053E40E94DC0C20E030E044E052E40E9446
:100DE000700C0E94550D862F08C01982FD01ED3B45
:100DF000F2400CF007C189818F5D26960FB6F894FA
:100E0000DEBF0FBECDBFDF91CF911F910F91FF903D
:100E1000EF90DF90CF90BF90AF909F908F907F909A
:100E20006F905F904F903F902F90089581E2E5CFB3
:100E3000F5E03F2EE5E0F0E0EE0FFF1FE85AFE4F31
:100E400080819181B801681B790B80E090E00E945D
:100E5000840D9B01AC010E94700C4B015C01B6013A
:100E6000DD0C880B990B0E94860D2B013C01B8010B
:100E700080E090E00E94840D6B017C01632D70E0A6
:100E800080E090E00E94840D20E030E040E05FE3ED
:100E90000E94120E20E030E0A9010E94700CA50112
:100EA00094010E94120E9B01AC01C701B6010E9481
:100EB0006F0C9B01AC01C301B2010E946F0C20E0DA
:100EC00030E040E251E40E94120E0E944E0D8B0170
:100ED000C501B4010E944E0DAB01BC01C801BA01AD
:100EE0000E94320C162F6F3F09F02CCF84CF65E0A3
:100EF00085E090E07C01F1E0EF1AF10870E080E01D
:100F000090E00E94840D20E030E040E05FE30E942A
:100F1000120E20E030E0A9010E94700C69837A83F0
:100F20008B839C8349CE61E081E090E0E3CF332462
:100F30003394E1E0F0E080CF82E0382EE2E0F0E0B0
:100F40007BCF62E082E090E0D5CF63E083E090E089
:100F5000D1CFB3E03B2EE3E0F0E06ECF64E084E07D
:100F600090E0C8CFA4E03A2EE4E0F0E065CF66E080
:100F700086E090E0BFCFE6E03E2EE6E0F0E05CCF1A
:100F800067E087E090E0B6CF77E0372EE7E0F0E06B
:100F900053CF68E0362EE8E0F0E04ECF68E088E01E
:100FA00090E0A8CF59E0352EE9E0F0E045CF69E0C8
:100FB00089E090E09FCF6AE08AE090E09BCF4AE032
:100FC000342EEAE0F0E038CF6BE08BE090E092CF97
:100FD0003BE0332EEBE0F0E02FCF6CE08CE090E0D4
:100FE00089CF2CE0322EECE0F0E026CF6DE08DE0F2
:100FF00090E080CF9DE0392EEDE0F0E01DCF81E262
:10100000810FFBCED101CD90DC9080915A0190915F
:101010005B018C159D0508F02CCE10E093CE1F923D
:101020000F920FB60F9211242F933F934F935F931C
:101030006F937F938F939F93AF93BF93EF93FF93A0
:101040002091790130917A01809177019091780116
:10105000820F931F90937A01809379018FEF90E034
:1010600090937801809377018FEF87BD8091550130
:1010700090915601A0915701B09158010196A11D80
:10108000B11D8093550190935601A0935701B093E1
:1010900058018091590181110FC080918801909170
:1010A00089012091790130917A018217930720F408
:1010B00080912501843089F0FF91EF91BF91AF912C
:1010C0009F918F917F916F915F914F913F912F9160
:1010D0000F900FBE0F901F901895E0910D01F091A9
:1010E0000E010995009741F30E94920B81110AC0ED
:1010F0000E94CB0E9C013327309378012093770117
:1011000087BDDACFE0910B01F0910C0109951092A7
:101110007A0110927901D0CF80FF11C0559A81FFDA
:1011200011C0549A82FF11C03B9A83FF11C03A9AB2
:1011300084FF11C03D9A85FD11C03C9808955598D3
:1011400081FDEFCF549882FDEFCF3B9883FDEFCF29
:101150003A9884FDEFCF3D9885FFEFCF3C9A0895F4
:101160001F920F920FB60F9211248F939F9310929C
:101170008100109285001092840081E080933201FA
:10118000809376011092590110927C0093EA90931B
:101190007A0080937B009F918F910F900FBE0F90EC
:1011A0001F9018951F920F920FB60F9211242F9334
:1011B0003F934F935F936F937F938F939F93AF93DF
:1011C000BF93CF93DF93EF93FF93209184003091EF
:1011D000850041E040935901809132018823A9F1B3
:1011E00010928500109284004093810010928A0131
:1011F00010923201809176018823A1F080917A00CB
:1012000086FDFCCF809178009091790090935401F5
:101210008093530181E080937C0093EA90937A005D
:1012200080937B00FF91EF91DF91CF91BF91AF91C0
:101230009F918F917F916F915F914F913F912F91EE
:101240000F900FBE0F901F901895C90187589109F4
:101250008437994008F04FC026583109A4EFB0E018
:101260000E944C0CAA27BB27883008F47BC040930F
:10127000320180917601811152C080915001E82F96
:10128000F0E0E458FE4F90918A0190838F5F809345
:1012900050018C3039F61092810010928500109226
:1012A00084004093760110925901C0918601D0913B
:1012B00087018CE791E00E94D90AC817D90709F085
:1012C000B1CF8091850187FF61C098E7980F933077
:1012D00030F0539823981092B4001092B30090E02D
:1012E000FC01E058F109EB30F10508F09BCFE55C1B
:1012F000FF4F0C94460C10928100109285001092C2
:10130000840040933201409376011092590110926B
:101310007C0083EA80937A0040937B0083CF8091A6
:101320007A0086FDFCCF80917800909179009093AF
:1013300052018093510110927C0083EA80937A00DD
:1013400081E080937B0090918A019923D1F01092E3
:101350008100109285001092840080937601109293
:10136000590160CF21E030E0F90102C0EE0FFF1F0C
:101370008A95E2F7CF0190918A01892B80938A01A7
:1013800051CF10927601109250014CCFE0910F0195
:10139000F091100161E571E08CE791E0099542CF91
:1013A00080917C01823009F4DDC008F4BAC083303A
:1013B00009F4C6C0843009F0B1C080912301909136
:1013C0008201833009F4E3C08091810110922401ED
:1013D00023E02093230180938D0190938E018091CF
:1013E0002501863009F41ECF539A239A1092B40037
:1013F0001092B30086E08093250114CF80912501DF
:10140000863099F0539A239A1092B4001092B30048
:10141000559854983B983A983D983C9810922301DF
:101420001092240186E08093250181E090E09C01E8
:1014300000907C0102C0220F331F0A94E2F78091D2
:101440008B0190918C0182239323892B09F086C014
:1014500010922301E7CE81E080932501E3CEE0E006
:10146000F0E0099580916E008D7F80936E0016BC30
:10147000E0E0F0E7099510922501D4CE82E0809358
:101480002501D0CE85E080932501CCCE8091250129
:10149000833009F4C7CE80912501843009F4C2CE8F
:1014A000539A239A1092B4001092B30083E0809371
:1014B0002501B8CE80912501863009F0B3CE609128
:1014C0008B0180EB90E00E94E30E60918C0181EB38
:1014D00090E00E94E30E60918F0185E090E00E9411
:1014E000E30E60917B0189E090E00E94E30E609141
:1014F0008D018CE090E00E94E30E60918E0184E10A
:1015000090E00E94E30E539823981092B40010923A
:10151000B30081E08093250180917C0181115FCF30
:1015200081CE882339F28130C9F780917D01909175
:101530007E0190938C0180938B01109223014FCFF9
:1015400080912301823071F18091800110922401F9
:1015500092E09093230180937B0141CF81E08093BF
:10156000230160CE80912301813051F080917F0171
:101570001092240191E09093230180938F012FCF4B
:1015800080917F0190918F018913F2CF28CF8091B4
:101590008E01981319CF8091810120918D018213C2
:1015A00015CF1DCF8091800190917B018913CECF03
:1015B00016CFFC0180812FEF3FEF2827022E2295C6
:1015C000207F2025032E322F22952F70022626956C
:1015D00032272327220F220F220F2025818128273F
:1015E000022E2295207F2025032E322F22952F7048
:1015F0000226269532272327220F220F220F20258D
:1016000082812827022E2295207F2025032E322F2B
:1016100022952F700226269532272327220F220F8C
:10162000220F202583812827022E2295207F202526
:10163000032E322F22952F7002262695322723273C
:10164000220F220F220F202584812827022E229587
:10165000207F2025032E322F22952F7002262695DB
:1016600032272327220F220F220F202585812827AA
:10167000022E2295207F2025032E322F22952F70B7
:101680000226269532272327220F220F220F2025FC
:1016900086812827022E2295207F2025032E322F97
:1016A00022952F700226269532272327220F220FFC
:1016B000220F202587812827022E2295207F202592
:1016C000032E322F22952F700226269532272327AC
:1016D000220F220F220F202580852827022E2295F7
:1016E000207F2025032E322F22952F70022626954B
:1016F00032272327220F220F220F20254185C901DF
:101700008427082E8295807F8025092E982F829528
:101710008F700826869598278927880F880F880F4D
:10172000802508950FB6F894A4B120914F012A2B7B
:1017300024B921E030914F01203029F0000025B17B
:10174000232B25B904C000000000000000C00000E9
:1017500000000000309525B1232325B92EEA2A95F3
:10176000F1F72BEE30B735FF0AC0A4B930914F0125
:10177000309525B1232325B90FBE80E008950000E0
:101780002A9581F721E030914F01203029F00000A7
:1017900025B1232B25B904C000000000000000C0C3
:1017A000000000000000309525B1232325B900007A
:1017B00024E52A95F1F7FC018CE0619170E0660F59
:1017C000771F616072609AE041E050E09A01262341
:1017D0003723232B30914F01203029F0000025B111
:1017E000232B25B904C000000000000000C0000049
:1017F00000000000309525B1232325B9000021E524
:101800002A95F1F7440F551F9A9501F78A95A9F685
:1018100020B7206120BFA4B930914F01309525B188
:10182000232325B90FBE81E008950E94F90184E7C2
:1018300090E090930C0180930B0181E790E09093EE
:101840000E0180930D018BE790E09093100180933F
:101850000F0164ED70E085E990E00E94F50280E000
:1018600090E0089597FB072E16F4009407D077FDBB
:1018700009D00E945B0C07FC05D03EF49095819541
:101880009F4F0895709561957F4F0895EE0FFF1F4C
:101890000590F491E02D0994A29FB001B39FC0017F
:1018A000A39F700D811D1124911DB29F700D811D8C
:1018B0001124911D0895AA1BBB1B51E107C0AA1F4B
:1018C000BB1FA617B70710F0A61BB70B881F991FE1
:1018D0005A95A9F780959095BC01CD01089550586F
:1018E000BB27AA270E94870C0C94D80D0E94CA0D12
:1018F00038F00E94D10D20F039F49F3F19F426F4FE
:101900000C94C70D0EF4E095E7FB0C94C10DE92F84
:101910000E94E90D58F3BA17620773078407950709
:1019200020F079F4A6F50C940B0E0EF4E0950B2E36
:10193000BA2FA02D0B01B90190010C01CA01A00121
:101940001124FF27591B99F0593F50F4503E68F17C
:101950001A16F040A22F232F342F4427585FF3CFBD
:10196000469537952795A795F0405395C9F77EF48E
:101970001F16BA0B620B730B840BBAF09150A1F0D7
:10198000FF0FBB1F661F771F881FC2F70EC0BA0F5D
:10199000621F731F841F48F4879577956795B795E5
:1019A000F7959E3F08F0B0CF9395880F08F09927E0
:1019B000EE0F9795879508950E94F00C0C94D80D22
:1019C0000E94D10D58F00E94CA0D40F029F45F3FEB
:1019D00029F00C94C10D51110C940C0E0C94C70DF0
:1019E0000E94E90D68F39923B1F3552391F3951BF8
:1019F000550BBB27AA2762177307840738F09F5F30
:101A00005F4F220F331F441FAA1FA9F335D00E2E9C
:101A10003AF0E0E832D091505040E695001CCAF709
:101A20002BD0FE2F29D0660F771F881FBB1F2617CC
:101A300037074807AB07B0E809F0BB0B802DBF01A3
:101A4000FF2793585F4F3AF09E3F510578F00C9472
:101A5000C10D0C940C0E5F3FE4F3983ED4F38695D1
:101A600077956795B795F7959F5FC9F7880F911D93
:101A70009695879597F90895E1E0660F771F881F7F
:101A8000BB1F621773078407BA0720F0621B730B32
:101A9000840BBA0BEE1F88F7E09508950E94550D50
:101AA0006894B1110C940C0E08950E94F10D88F009
:101AB0009F5798F0B92F9927B751B0F0E1F0660F12
:101AC000771F881F991F1AF0BA95C9F714C0B13053
:101AD00091F00E940B0EB1E008950C940B0E672F4D
:101AE000782F8827B85F39F0B93FCCF38695779582
:101AF0006795B395D9F73EF490958095709561956B
:101B00007F4F8F4F9F4F0895E89409C097FB3EF495
:101B100090958095709561957F4F8F4F9F4F99233A
:101B2000A9F0F92F96E9BB279395F69587957795B8
:101B30006795B795F111F8CFFAF4BB0F11F460FF78
:101B40001BC06F5F7F4F8F4F9F4F16C0882311F0D0
:101B500096E911C0772321F09EE8872F762F05C0E4
:101B6000662371F096E8862F70E060E02AF09A957F
:101B7000660F771F881FDAF7880F9695879597F974
:101B8000089597F99F6780E870E060E008959FEFFF
:101B900080EC089500240A94161617061806090604
:101BA000089500240A9412161306140605060895D3
:101BB000092E0394000C11F4882352F0BB0F40F45B
:101BC000BF2B11F460FF04C06F5F7F4F8F4F9F4F9B
:101BD000089557FD9058440F551F59F05F3F71F01D
:101BE0004795880F97FB991F61F09F3F79F0879584
:101BF0000895121613061406551FF2CF4695F1DF0D
:101C000008C0161617061806991FF1CF869571059C
:101C1000610508940895E894BB2766277727CB01D0
:101C200097F908950E94250E0C94D80D0E94CA0DB4
:101C300038F00E94D10D20F0952311F00C94C10DC5
:101C40000C94C70D11240C940C0E0E94E90D70F336
:101C5000959FC1F3950F50E0551F629FF001729F51
:101C6000BB27F00DB11D639FAA27F00DB11DAA1F60
:101C7000649F6627B00DA11D661F829F2227B00DAD
:101C8000A11D621F739FB00DA11D621F839FA00D38
:101C9000611D221F749F3327A00D611D231F849F88
:101CA000600D211D822F762F6A2F11249F575040DF
:101CB0009AF0F1F088234AF0EE0FFF1FBB1F661F5A
:101CC000771F881F91505040A9F79E3F510580F023
:101CD0000C94C10D0C940C0E5F3FE4F3983ED4F3CA
:101CE000869577956795B795F795E7959F5FC1F7C7
:101CF000FE2B880F911D9695879597F908958F92E1
:101D00009F92AF92BF92CF92DF92EF92FF92CF93CA
:101D1000DF93EC01688179818A819B81611571056E
:101D20008105910521F464E279ED8BE597E02DE1E1
:101D300033EF41E050E00E94F10E49015A019B014E
:101D4000AC01A7EAB1E40E94100F6B017C01ACEE7C
:101D5000B4EFA50194010E941E0FDC01CB018C0D94
:101D60009D1DAE1DBF1DB7FF03C00197A109B0485F
:101D700088839983AA83BB839F77DF91CF91FF905C
:101D8000EF90DF90CF90BF90AF909F908F9008958D
:101D90000E947F0E089581E191E00E947F0E0895D8
:101DA000A0E0B0E08093110190931201A093130181
:101DB000B09314010895F999FECF92BD81BDF89AB0
:101DC000992780B50895262FF999FECF1FBA92BDA5
:101DD00081BD20BD0FB6F894FA9AF99A0FBE01960C
:101DE0000895052E97FB1EF400940E94080F57FDDE
:101DF00007D00E94230F07FC03D04EF40C94080F69
:101E000050954095309521953F4F4F4F5F4F089526
:101E100090958095709561957F4F8F4F9F4F089556
:101E20000E944C0CA59F900DB49F900DA49F800D17
:101E3000911D11240895B7FF0C94100F0E94100FEC
:101E4000821B930B0895A1E21A2EAA1BBB1BFD0156
:101E50000DC0AA1FBB1FEE1FFF1FA217B307E40789
:101E6000F50720F0A21BB30BE40BF50B661F771FE1
:101E7000881F991F1A9469F76095709580959095C1
:0E1E80009B01AC01BD01CF010895F894FFCF86
:101E8E0002000A00650063006400AAF801F501F47F
:061E9E000101000000003C
:00000001FF
