:100000000C9446000C946F000C946F000C946F00DD
:100010000C946F000C946F000C94FD020C946F0014
:100020000C946F000C946F000C946F000C94CF082C
:100030000C946F000C946F000C942E080C946F00BD
:100040000C946F000C946F000C946F000C946F0074
:100050000C946F000C946F000C946F000C94F108DA
:100060000C946F000C946F007E03620336032D0323
:100070003303DC03D103510A310931094E0A5A0A0C
:100080004A0A610A5D0A650A1D0AEF0911241FBEAA
:10009000CFEFD8E0DEBFCDBF14BE0FB6F894A89561
:1000A00080916000886180936000109260000FBEB4
:1000B00011E0A0E0B1E0ECECFEE102C005900D9291
:1000C000A431B107D9F721E0A4E1B1E001C01D924C
:1000D000AE38B207E1F70E94340C0C94640F0C9414
:1000E000000084E291E0089581E090E090931D018A
:1000F00080931C010895CF93DF93EC01CB0121E0A5
:1001000030E030931B0120931A010E945C0590E0BF
:100110009093190180931801888190E090931701C2
:1001200080931601DF91CF9108950F931F93CF9382
:10013000DF9381E00E94AB0888EE93E00E946B049D
:1001400080E00E94AB08C4E2D1E019861882CE019B
:100150000E94F80A9B878A870E94D5040E943C056A
:10016000C0910201D0910301009104011091050199
:100170000E94240590E0BE01601B710B6F5F7F4FF2
:100180000E94510C800F911F9093070180930601EC
:100190000E9424052AE0829FC0011124DF91CF91A3
:1001A0001F910F910C946B040F931F93CF93DF93C8
:1001B00080911C0190911D01892B21F010921D014D
:1001C00010921C0180911A0190911B01892B41F51D
:1001D00080911E0190911F018093240184E291E09F
:1001E0000E94F80A90932F0180932E0180911E01A6
:1001F00090911F01209106013091070128173907BE
:100200008CF1019690931F0180931E018091000153
:1002100090910101DF91CF911F910F910C946B048C
:1002200010921B0110921A0120911E0130911F01A2
:100230008091160190911701821B930B8E3F4FEF17
:100240009407BCF18330910514F082E090E0909324
:10025000150180931401820F931F90931F018093C7
:100260001E01BACF85E00E94AB088AEF90E00E94A1
:100270006B0480E00E94AB08C0910201D0910301A1
:1002800000910401109105010E94240590E0BE0137
:10029000601B710B6F5F7F4F0E94510C800F911F8D
:1002A000909307018093060110921F0110921E0186
:1002B000ADCF8EEF9FEF9093150180931401CBCFBC
:1002C0000F931F93CF93DF938C01EB010E942405C2
:1002D00090E0BE01601B710B6F5F7F4F0E94510C5D
:1002E000800F911FDF91CF911F910F9108950F9370
:1002F0001F93CF93DF9385E00E94AB088AEF90E0D5
:100300000E946B0480E00E94AB08C0910201D09172
:10031000030100910401109105010E94240590E061
:10032000BE01601B710B6F5F7F4F0E94510C800FED
:10033000911F9093070180930601DF91CF911F9148
:100340000F91089540911E0150911F0120911601B7
:1003500030911701C901841B950B8E3F2FEF920737
:100360006CF48EEF9FEF9093150180931401840F2E
:10037000951F90931F0180931E010895833091056E
:1003800014F082E090E09093150180931401840FA3
:10039000951F90931F0180931E01089585E10E948F
:1003A000AB0884E690E00E946B0485E10C94AB08F6
:1003B00080911C0190911D01892B21F010921D014B
:1003C00010921C01089580911A0190911B01892BB4
:1003D00011F110921B0110921A0140911E015091CF
:1003E0001F012091160130911701C901841B950B43
:1003F0008E3F2FEF920784F08330910514F082E056
:1004000090E09093150180931401840F951F9093B1
:100410001F0180931E0108958EEF9FEF90931501A9
:1004200080931401F2CF089580E090E0089508953C
:10043000DF92EF92FF920F931F93CF93DF93F89485
:1004400014B817B81AB815B818B81BB8529A5A9AEF
:1004500014BC85E085BD8FEF87BD82E080936E0080
:1004600010928000109281002FE83BE030938900C9
:100470002093880080936F005398239891EA90937B
:10048000B0008093B1001092B4001092B3008BE0E2
:1004900080BF83E080937F0086E080937C0083E8C8
:1004A00080937A0080917A00806480937A008091B2
:1004B0007A0086FDFCCF10927C0083EA80937A005C
:1004C00081E080937B0081E090E00E94FA0E8F3FF4
:1004D00011F08093660010925701C1E0C093300183
:1004E000C093740110924E011092880180E990E04F
:1004F0000E94FA0E80934D0180914D01887311F096
:10050000C0934D0110927801109277018FEF90E027
:1005100090937601809375011092530110925401CB
:10052000109255011092560181E08093230182E4DC
:100530009FE0909387018093860180EB90E00E947A
:10054000FA0EC82F81EB90E00E94FA0E2C2F30E0BB
:10055000382B30938A012093890185E090E00E9436
:10056000FA0E80938D0189E090E00E94FA0E80934C
:1005700079018CE090E00E94FA0E80938B0184E177
:1005800090E00E94FA0E80938C0158E5E52E51E030
:10059000F52E01E311E0C0E2D0E0CE010E94FA0E98
:1005A000D82ECE0101960E94FA0E2D2D30E0322F6A
:1005B0002227282BF701219331937F01CE01C0968A
:1005C0000E94FA0ED82ECE01C1960E94FA0E2D2D51
:1005D00030E0322F2227282BF801219331938F010D
:1005E0002296CC33D105C9F67894DF91CF911F9133
:1005F0000F91FF90EF90DF9008951F920F920FB62A
:100600000F9211248F930FB6F894A89580916000F3
:10061000886180936000109260000FBE8F910F90F0
:100620000FBE0F901F9018953C01EB0110E099242C
:100630009A9484E0C82E96E0A92E23E8B22E38E1E1
:10064000D32E49E2E42EE0912301F0E0E730F105FA
:10065000D0F7EC5CFF4F0C94650C112309F405C135
:10066000C092230111E0FE010995EDCF8091570161
:10067000811105C1F894A0927C00B0927A0080911B
:100680007A00806480937A0080917A0086FDFCCFA6
:10069000809178009091790078948B3AE2E09E07FF
:1006A0000CF0E6C08938F2E09F070CF0EFC0873607
:1006B00092400CF4E4C0559A549A3B9A3A9A3D9869
:1006C0003C98C1CF559854983B9A3A9A3D983C989B
:1006D000EFECF7E03197F1F700C00000559854981F
:1006E0003B983A983D983C98FFEF21EE84E0F1501A
:1006F00020408040E1F700C00000A5CFF89480B70B
:10070000877F80BF80917A008F7780937A0014B8BA
:1007100017B81AB815B818B81BB80FB6F894A8953A
:10072000D09260000FBEE092600080916000806413
:100730008093600083B7817F846083BFF89483B720
:10074000816083BF7894889583B78E7F83BF7894C8
:1007500010925701529A5A9A80917A008068809339
:100760007A0087E592E00197F1F700C0000080B7BA
:10077000886180BF559A549A3B9A3A9A3D9A3C9A1E
:10078000EFE1FEE43197F1F700C0000080915701DE
:1007900081115BC0559854983B983A983D983C9885
:1007A00052CF80912101811125C01092B300109287
:1007B000B4001092220147CF4899ECCF559A549833
:1007C0003B983A983D983C988FEC97E00197F1F769
:1007D00000C00000559854983B983A983D983C9832
:1007E0009FEFE1EEF4E09150E040F040E1F700C00F
:1007F000000029CF9091210180912201981709F4DE
:1008000022CF8091210180932201809121018130AA
:1008100009F450C0809121011092B3009092B4006D
:100820008230D9F19092B3009092B4008FE295E7B4
:100830000197F1F700C0000080918C0190918B012D
:100840009093B3008093B400FECE559A549A3B988F
:100850003A983D983C98FFEF20E782E0F150204025
:100860008040E1F700C0000095CFF3010995F8CE74
:10087000559854983B9A3A9A3D983C98E4CE559AAC
:10088000549A3B983A983D983C98DDCE55985498A8
:100890003B983A983D9A3C9AD6CEEFE2F5E73197ED
:1008A000F1F700C00000809179011092B3008093AD
:1008B000B400C9CE9092B3001092B4008FE295E7D5
:1008C0000197F1F700C0000080918D018093B30083
:1008D0001092B400B8CE07C0EFECF7E03197F1F713
:1008E00000C0000001970097B9F708958093B30006
:1008F0006093B40008958FEF8093B3008093B400A9
:100900008FE090E0EFECF7E03197F1F700C00000E6
:100910000197C1F708958091570181111EC0F89485
:1009200087E080937C0083E880937A0080917A004E
:10093000806480937A0080917A0086FDFCCF80915C
:1009400078009091790010927C0023EA20937A003D
:1009500021E020937B00789408958FEF9FEF089516
:100960008091570181111EC0F89488EC80937C001F
:1009700087E880937A0080917A00806480937A007F
:1009800080917A0086FDFCCF80917800909179006B
:1009900010927C0023EA20937A0021E020937B00D0
:1009A000789408958FEF9FEF08950F931F93CF933F
:1009B000DF93E0E0F0E080E003EA11E0D6E0C3E896
:1009C000A1E0B0E060E870E0F894D0937C00C093C0
:1009D0007A0090917A00906490937A0090917A00D6
:1009E00096FDFCCF20917800309179002170909194
:1009F0007A00906490937A0090917A0096FDFCCFF3
:100A0000409178005091790010927C0000937A0018
:100A100010937B0078944170241303C061507109D6
:100A200099F6222339F09D010E2E01C0220F0A945F
:100A3000EAF7822B3196E830F10509F0C3CFDF9158
:100A4000CF911F910F91089580910801982F990FD0
:100A5000990F990F89279091200121E0290F209368
:100A60002001282F22952695277082279695969506
:100A70008927809308010895809308010895809143
:100A80005701811116C0F89486E080937C0083E8BA
:100A900080937A0080917A00806480937A008091BC
:100AA0007A0086FDFCCF809178009091790078944F
:100AB00008958FEF9FEF08952F923F924F925F928C
:100AC0006F927F928F929F92AF92BF92CF92DF925E
:100AD000EF92FF920F931F93CF93DF9300D000D03C
:100AE00000D0CDB7DEB71C01DC0112960D90BC9191
:100AF000A02DBE83AD83A438E3E0BE070CF0CBC0CD
:100B000080913101909132018A179B0708F48CC1C2
:100B100000913301109134010A171B0708F422C217
:100B200000913501109136010A171B0708F428C2FD
:100B300000913701109138010A171B0708F424C2ED
:100B40000091390110913A010A171B0708F425C2D8
:100B500000913B0110913C010A171B0708F4E6C104
:100B600000913D0110913E010A171B0708F41EC2B7
:100B700000913F01109140010A171B0708F41FC2A2
:100B800000914101109142010A171B0708F425C288
:100B900000914301109144010A171B0708F426C273
:100BA00000914501109146010A171B0708F422C263
:100BB00000914701109148010A171B0708F423C24E
:100BC0000091490110914A010A171B0708F424C239
:100BD00000914B0110914C010A171B0708F425C224
:100BE00080E090E0A0EDB0E489839A83AB83BC837E
:100BF0002CE0E22EF12CF701EE0FFF1FEF5CFE4F11
:100C000080819181B801681B790B80E090E00E949F
:100C1000A30D9B01AC010E948F0C6B017C01AD8187
:100C2000BE81BD01BB0F880B990B0E94A50D4B0126
:100C30005C01B80180E090E00E94A30D2B013C0113
:100C400029813A814B815C81C701B6010E94310E36
:100C50009B01AC01C301B2010E948E0C9B01AC014F
:100C6000C501B4010E948E0C20E030E040E251E466
:100C70000E94310E0E946D0D8B01C701B6010E94CA
:100C80006D0DAB01BC01C801BA010E94510C698312
:100C9000ED81FE81CBC0DC01CD90DC9080915801CC
:100CA000909159018C159D0508F4DFC0BFEFB98301
:100CB00000915A0110915B010C151D0508F456C1F5
:100CC00000915C0110915D010C151D0508F453C1E4
:100CD00000915E0110915F010C151D0508F458C1CB
:100CE00000916001109161010C151D0508F459C1B6
:100CF00000916201109163010C151D0508F4B7C045
:100D000000916401109165010C151D0508F452C194
:100D100000916601109167010C151D0508F453C17F
:100D200000916801109169010C151D0508F450C16E
:100D300000916A0110916B010C151D0508F451C159
:100D400000916C0110916D010C151D0508F456C140
:100D500000916E0110916F010C151D0508F457C12B
:100D600000917001109171010C151D0508F458C116
:100D700000917201109173010C151D0508F459C101
:100D80001AE5B981BF3F09F459C1ED81FE81BF0168
:100D9000FF0F880B990B0E94A50D4B015C01F98197
:100DA0006F2F70E080E090E00E94A30D6B017C014A
:100DB000A501940160E070E081E694E40E948E0C4D
:100DC0009B01AC01C701B6010E94310E6B017C0191
:100DD000612F70E080E090E00E94A30D2B013C01A8
:100DE00020E030E04FE254E4C501B4010E948E0CD3
:100DF0009B01AC01C301B2010E94310E9B01AC0109
:100E0000C701B6010E948F0C20E030E048E453E4B3
:100E10000E94FB0C20E030E044E052E40E948F0C82
:100E20000E94740D862F08C01982FD01ED3BF2402F
:100E30000CF007C189818F5D26960FB6F894DEBF4E
:100E40000FBECDBFDF91CF911F910F91FF90EF901B
:100E5000DF90CF90BF90AF909F908F907F906F90DA
:100E60005F904F903F902F90089581E2E5CFF5E09D
:100E70003F2EE5E0F0E0EE0FFF1FEA5AFE4F8081C3
:100E80009181B801681B790B80E090E00E94A30D6E
:100E90009B01AC010E948F0C4B015C01B601DD0C83
:100EA000880B990B0E94A50D2B013C01B80180E035
:100EB00090E00E94A30D6B017C01632D70E080E047
:100EC00090E00E94A30D20E030E040E05FE30E944C
:100ED000310E20E030E0A9010E948F0CA5019401A1
:100EE0000E94310E9B01AC01C701B6010E948E0C1D
:100EF0009B01AC01C301B2010E948E0C20E030E0E6
:100F000040E251E40E94310E0E946D0D8B01C5013B
:100F1000B4010E946D0DAB01BC01C801BA010E9471
:100F2000510C162F6F3F09F02CCF84CF65E085E080
:100F300090E07C01F1E0EF1AF10870E080E090E0D1
:100F40000E94A30D20E030E040E05FE30E94310EFC
:100F500020E030E0A9010E948F0C69837A838B83A3
:100F60009C8349CE61E081E090E0E3CF3324339469
:100F7000E1E0F0E080CF82E0382EE2E0F0E07BCFED
:100F800062E082E090E0D5CF63E083E090E0D1CFF3
:100F9000B3E03B2EE3E0F0E06ECF64E084E090E06D
:100FA000C8CFA4E03A2EE4E0F0E065CF66E086E04A
:100FB00090E0BFCFE6E03E2EE6E0F0E05CCF67E0F9
:100FC00087E090E0B6CF77E0372EE7E0F0E053CF50
:100FD00068E0362EE8E0F0E04ECF68E088E090E090
:100FE000A8CF59E0352EE9E0F0E045CF69E089E08F
:100FF00090E09FCF6AE08AE090E09BCF4AE0342EF9
:10100000EAE0F0E038CF6BE08BE090E092CF3BE09D
:10101000332EEBE0F0E02FCF6CE08CE090E089CF56
:101020002CE0322EECE0F0E026CF6DE08DE090E099
:1010300080CF9DE0392EEDE0F0E01DCF81E2810F01
:10104000FBCED101CD90DC90809158019091590157
:101050008C159D0508F02CCE10E093CE1F920F92B8
:101060000FB60F9211242F933F934F935F936F937B
:101070007F938F939F93AF93BF93EF93FF932091B1
:101080007701309178018091750190917601820FFE
:10109000931F90937801809377018FEF90E0909366
:1010A0007601809375018FEF87BD809153019091F8
:1010B0005401A0915501B09156010196A11DB11D99
:1010C0008093530190935401A0935501B09356011E
:1010D0008091570181110FC0809186019091870105
:1010E00020917701309178018217930720F4809145
:1010F0002301843089F0FF91EF91BF91AF919F91CF
:101100008F917F916F915F914F913F912F910F90B0
:101110000FBE0F901F901895E0910B01F0910C01FC
:101120000995009741F30E94B10B81110AC00E94FA
:10113000EA0E9C013327309376012093750187BD19
:10114000DACFE0910901F0910A0109951092780136
:1011500010927701D0CF80FF11C0559A81FF11C046
:10116000549A82FF11C03B9A83FF11C03A9A84FFC0
:1011700011C03D9A85FD11C03C980895559881FD98
:10118000EFCF549882FDEFCF3B9883FDEFCF3A9895
:1011900084FDEFCF3D9885FFEFCF3C9A08951F92D5
:1011A0000F920FB60F9211248F939F93109281008C
:1011B000109285001092840081E08093300180932A
:1011C00074011092570110927C0093EA90937A0078
:1011D00080937B009F918F910F900FBE0F901F9077
:1011E00018951F920F920FB60F9211242F933F93D1
:1011F0004F935F936F937F938F939F93AF93BF931F
:10120000CF93DF93EF93FF9320918400309185007B
:1012100041E040935701809130018823A9F1109259
:1012200085001092840040938100109288011092F2
:101230003001809174018823A1F080917A0086FDAD
:10124000FCCF809178009091790090935201809327
:10125000510181E080937C0093EA90937A0080931F
:101260007B00FF91EF91DF91CF91BF91AF919F9163
:101270008F917F916F915F914F913F912F910F903F
:101280000FBE0F901F901895C90187589109843798
:10129000994008F04FC026583109A4EFB0E00E94F1
:1012A0006B0CAA27BB27883008F47BC04093300121
:1012B00080917401811152C080914E01E82FF0E0BD
:1012C000E658FE4F9091880190838F5F80934E0186
:1012D0008C3039F6109281001092850010928400B3
:1012E0004093740110925701C0918401D0918501FF
:1012F0008AE791E00E94F80AC817D90709F0B1CF30
:101300008091830187FF61C098E7980F933030F098
:10131000539823981092B4001092B30090E0FC010F
:10132000E058F109EB30F10508F09BCFE55CFF4F89
:101330000C94650C1092810010928500109284002C
:1013400040933001409374011092570110927C0039
:1013500083EA80937A0040937B0083CF80917A0068
:1013600086FDFCCF80917800909179009093500198
:1013700080934F0110927C0083EA80937A0081E091
:1013800080937B00909188019923D1F01092810085
:10139000109285001092840080937401109257017E
:1013A00060CF21E030E0F90102C0EE0FFF1F8A9507
:1013B000E2F7CF0190918801892B8093880151CF6A
:1013C0001092740110924E014CCFE0910D01F091FA
:1013D0000E016FE471E08AE791E0099542CF8091B8
:1013E0007A01823009F4DDC008F4BAC0833009F410
:1013F000C6C0843009F0B1C0809121019091800174
:10140000833009F4E3C080917F011092220123E030
:101410002093210180938B0190938C018091230173
:10142000863009F41ECF539A239A1092B40010927A
:10143000B30086E08093230114CF8091230186308E
:1014400099F0539A239A1092B4001092B3005598D1
:1014500054983B983A983D983C98109221011092EC
:10146000220186E08093230181E090E09C010090BE
:101470007A0102C0220F331F0A94E2F7809189019A
:1014800090918A0182239323892B09F086C01092C0
:101490002101E7CE81E080932301E3CEE0E0F0E09C
:1014A000099580916E008D7F80936E0016BCE0E000
:1014B000F0E7099510922301D4CE82E080932301B6
:1014C000D0CE85E080932301CCCE80912301833060
:1014D00009F4C7CE80912301843009F4C2CE539A17
:1014E000239A1092B4001092B30083E080932301FA
:1014F000B8CE80912301863009F0B3CE6091890186
:1015000080EB90E00E94020F60918A0181EB90E0F5
:101510000E94020F60918D0185E090E00E94020F11
:101520006091790189E090E00E94020F60918B0147
:101530008CE090E00E94020F60918C0184E190E0C9
:101540000E94020F539823981092B4001092B30097
:1015500081E08093230180917A0181115FCF81CE58
:10156000882339F28130C9F780917B0190917C0109
:1015700090938A0180938901109221014FCF80912D
:101580002101823071F180917E011092220192E05E
:10159000909321018093790141CF81E080932101D3
:1015A00060CE80912101813051F080917D011092B7
:1015B000220191E09093210180938D012FCF8091A2
:1015C0007D0190918D018913F2CF28CF80918C01FC
:1015D000981319CF80917F0120918B01821315CF31
:1015E0001DCF80917E01909179018913CECF16CFC6
:1015F000FC0180812FEF3FEF2827022E2295207FCC
:101600002025032E322F22952F7002262695322771
:101610002327220F220F220F202581812827022E27
:101620002295207F2025032E322F22952F7002260F
:10163000269532272327220F220F220F2025828171
:101640002827022E2295207F2025032E322F229537
:101650002F700226269532272327220F220F220FD2
:10166000202583812827022E2295207F2025032EE6
:10167000322F22952F700226269532272327220FFC
:10168000220F220F202584812827022E2295207FD9
:101690002025032E322F22952F70022626953227E1
:1016A0002327220F220F220F202585812827022E93
:1016B0002295207F2025032E322F22952F7002267F
:1016C000269532272327220F220F220F20258681DD
:1016D0002827022E2295207F2025032E322F2295A7
:1016E0002F700226269532272327220F220F220F42
:1016F000202587812827022E2295207F2025032E52
:10170000322F22952F700226269532272327220F6B
:10171000220F220F202580852827022E2295207F48
:101720002025032E322F22952F7002262695322750
:101730002327220F220F220F20254185C90184274C
:10174000082E8295807F8025092E982F82958F7094
:101750000826869598278927880F880F880F802567
:1017600008950FB6F894A4B120914D012A2B24B905
:1017700021E030914D01203029F0000025B1232BCC
:1017800025B904C000000000000000C000000000F7
:101790000000309525B1232325B92EEA2A95F1F7CB
:1017A0002BEE30B735FF0AC0A4B930914D0130950A
:1017B00025B1232325B90FBE80E0089500002A95A6
:1017C00081F721E030914D01203029F0000025B152
:1017D000232B25B904C000000000000000C0000059
:1017E00000000000309525B1232325B9000024E531
:1017F0002A95F1F7FC018CE0619170E0660F771F8C
:10180000616072609AE041E050E09A01262337233C
:10181000232B30914D01203029F0000025B1232BDE
:1018200025B904C000000000000000C00000000056
:101830000000309525B1232325B9000021E52A9524
:10184000F1F7440F551F9A9501F78A95A9F620B72D
:10185000206120BFA4B930914D01309525B12323DB
:1018600025B90FBE81E008950E94180284E790E038
:1018700090930A018093090181E790E090930C0115
:1018800080930B018BE790E090930E0180930D0104
:1018900064ED70E085E990E00E94140380E090E040
:1018A000089597FB072E16F4009407D077FD09D012
:1018B0000E947A0C07FC05D03EF4909581959F4FCD
:1018C0000895709561957F4F0895EE0FFF1F059065
:1018D000F491E02D0994A29FB001B39FC001A39F92
:1018E000700D811D1124911DB29F700D811D112459
:1018F000911D0895AA1BBB1B51E107C0AA1FBB1F66
:10190000A617B70710F0A61BB70B881F991F5A958B
:10191000A9F780959095BC01CD0108955058BB273B
:10192000AA270E94A60C0C94F70D0E94E90D38F02E
:101930000E94F00D20F039F49F3F19F426F40C9426
:10194000E60D0EF4E095E7FB0C94E00DE92F0E9404
:10195000080E58F3BA17620773078407950720F03B
:1019600079F4A6F50C942A0E0EF4E0950B2EBA2FFE
:10197000A02D0B01B90190010C01CA01A001112495
:10198000FF27591B99F0593F50F4503E68F11A1641
:10199000F040A22F232F342F4427585FF3CF4695D2
:1019A00037952795A795F0405395C9F77EF41F16F4
:1019B000BA0B620B730B840BBAF09150A1F0FF0FBE
:1019C000BB1F661F771F881FC2F70EC0BA0F621FAA
:1019D000731F841F48F4879577956795B795F7959A
:1019E0009E3F08F0B0CF9395880F08F09927EE0F2F
:1019F0009795879508950E940F0D0C94F70D0E94FE
:101A0000F00D58F00E94E90D40F029F45F3F29F0F5
:101A10000C94E00D51110C942B0E0C94E60D0E94C9
:101A2000080E68F39923B1F3552391F3951B550BD9
:101A3000BB27AA2762177307840738F09F5F5F4FA1
:101A4000220F331F441FAA1FA9F335D00E2E3AF0E0
:101A5000E0E832D091505040E695001CCAF72BD0F8
:101A6000FE2F29D0660F771F881FBB1F2617370749
:101A70004807AB07B0E809F0BB0B802DBF01FF277B
:101A800093585F4F3AF09E3F510578F00C94E00D6B
:101A90000C942B0E5F3FE4F3983ED4F38695779534
:101AA0006795B795F7959F5FC9F7880F911D969534
:101AB000879597F90895E1E0660F771F881FBB1F90
:101AC000621773078407BA0720F0621B730B840B3D
:101AD000BA0BEE1F88F7E09508950E94740D689484
:101AE000B1110C942B0E08950E94100E88F09F5790
:101AF00098F0B92F9927B751B0F0E1F0660F771F32
:101B0000881F991F1AF0BA95C9F714C0B13091F027
:101B10000E942A0EB1E008950C942A0E672F782FA8
:101B20008827B85F39F0B93FCCF3869577956795EC
:101B3000B395D9F73EF490958095709561957F4F58
:101B40008F4F9F4F0895E89409C097FB3EF49095FE
:101B50008095709561957F4F8F4F9F4F9923A9F086
:101B6000F92F96E9BB279395F69587957795679515
:101B7000B795F111F8CFFAF4BB0F11F460FF1BC059
:101B80006F5F7F4F8F4F9F4F16C0882311F096E9EC
:101B900011C0772321F09EE8872F762F05C066239A
:101BA00071F096E8862F70E060E02AF09A95660F53
:101BB000771F881FDAF7880F9695879597F908950C
:101BC00097F99F6780E870E060E008959FEF80ECF0
:101BD000089500240A941616170618060906089593
:101BE00000240A9412161306140605060895092EF9
:101BF0000394000C11F4882352F0BB0F40F4BF2B68
:101C000011F460FF04C06F5F7F4F8F4F9F4F0895A7
:101C100057FD9058440F551F59F05F3F71F047959D
:101C2000880F97FB991F61F09F3F79F08795089582
:101C3000121613061406551FF2CF4695F1DF08C0A1
:101C4000161617061806991FF1CF869571056105BE
:101C500008940895E894BB2766277727CB0197F966
:101C600008950E94440E0C94F70D0E94E90D38F07F
:101C70000E94F00D20F0952311F00C94E00D0C94CF
:101C8000E60D11240C942B0E0E94080E70F3959F04
:101C9000C1F3950F50E0551F629FF001729FBB2763
:101CA000F00DB11D639FAA27F00DB11DAA1F649FFF
:101CB0006627B00DA11D661F829F2227B00DA11DB2
:101CC000621F739FB00DA11D621F839FA00D611D38
:101CD000221F749F3327A00D611D231F849F600D59
:101CE000211D822F762F6A2F11249F5750409AF082
:101CF000F1F088234AF0EE0FFF1FBB1F661F771F0E
:101D0000881F91505040A9F79E3F510580F00C94D8
:101D1000E00D0C942B0E5F3FE4F3983ED4F38695D0
:101D200077956795B795F795E7959F5FC1F7FE2B78
:101D3000880F911D9695879597F908958F929F9298
:101D4000AF92BF92CF92DF92EF92FF92CF93DF9349
:101D5000EC01688179818A819B816115710581051A
:101D6000910521F464E279ED8BE597E02DE133EF05
:101D700041E050E00E94100F49015A019B01AC0163
:101D8000A7EAB1E40E942F0F6B017C01ACEEB4EF27
:101D9000A50194010E943D0FDC01CB018C0D9D1D1E
:101DA000AE1DBF1DB7FF03C00197A109B0488883CE
:101DB0009983AA83BB839F77DF91CF91FF90EF90A8
:101DC000DF90CF90BF90AF909F908F9008950E942A
:101DD0009E0E08958FE091E00E949E0E0895A0E06F
:101DE000B0E080930F0190931001A0931101B09384
:101DF00012010895F999FECF92BD81BDF89A9927F5
:101E000080B50895262FF999FECF1FBA92BD81BDE6
:101E100020BD0FB6F894FA9AF99A0FBE019608956C
:101E2000052E97FB1EF400940E94270F57FD07D044
:101E30000E94420F07FC03D04EF40C94270F5095DC
:101E40004095309521953F4F4F4F5F4F08959095A6
:101E50008095709561957F4F8F4F9F4F08950E9499
:101E60006B0CA59F900DB49F900DA49F800D911DAC
:101E700011240895B7FF0C942F0F0E942F0F821B7F
:101E8000930B0895A1E21A2EAA1BBB1BFD010DC0E6
:101E9000AA1FBB1FEE1FFF1FA217B307E407F5071A
:101EA00020F0A21BB30BE40BF50B661F771F881FF6
:101EB000991F1A9469F760957095809590959B018C
:0C1EC000AC01BD01CF010895F894FFCFE4
:101ECC000A0069005F006400AA17021402130201E1
:041EDC000000000002
:00000001FF
